:020000040000FA
:060000000201070221814C
:03002B0002240BA1
:030033000223EDB8
:03003B0002242577
:030043000223A1F4
:030053000221F790
:03006B000223C7A6
:10008300021FD7E5C754F84401F5C77901220000E0
:100093000080FB120086B900030200F1E4791A78AC
:1000A30002B800028004F709D8FCE4791C7802B88E
:1000B30000028004F709D8FCE4900281783F791BA1
:1000C3008002F0A3D8FCD9FA7ABF7B1C9001377861
:1000D300DB79018015E493A3AD82AE838A828B839F
:1000E300F0A3AA82AB838D828E83D8E9D9E7758288
:1000F300667583D474031201197582917583007434
:100103000012011975D00075813F751881751902A8
:10011300759F00020096C09FF59FE473D09F22D085
:1001230083D082C09FE493C0E0740193C0E0740263
:1001330093F59F229D03A903DF03D903FF0000B4B6
:10014300000028002800283075A000A000A000A00F
:100153000000080008E001F000100010001000107B
:10016300001000100050005000500010001000D08C
:10017300070000000000000F0001000500307507B4
:10018300001000010081FF00000000FFFFFF0202DA
:1001930002E282010000CF8202DC82010000191D0D
:1001A30002D882010000B80202DC820100001A1D9D
:1001B30002D682010000CE02FFFF0100FF2002E20F
:1001C30082010000CC8202DC82010000481D02EAA9
:1001D30082000000000002E882030000FA02170018
:1001E300D70BD70BD70BD70BD70BD70BD70BD70BFC
:1001F300D70BD70BD70BD70BD70BB70DD50DB10D2E
:1002030001E803057710020AFFFFFF00FEFF12015A
:100213002205C00312012218C00312012239C003B0
:10022300120122A4C003120122E5C0031201220617
:10023300C10312012247C103120122DFC1031201CC
:100243002227C20312012299AA03120122ACAA0394
:10025300120122DDAA0312012217AB03120122703D
:10026300AB03120122B7AB03120122FFAB0312014E
:10027300222EAC031201225DAC0312012294AC03C3
:10028300120122DBAC03120122F4AC031201224956
:10029300AD0312012277AD03120122B1AD031201A6
:1002A30022019B02120122049C02120122319C02B0
:1002B300120122829C02120122A59C02120122B782
:1002C3009C02120122BA9C02120122F89C02120122
:1002D300226C9D02120122D89D02120122A09E02CD
:1002E300120122C69E02120122009F0212012297CE
:1002F3009F02120122E99F021201221AA002120197
:10030300224BA00212012258A002120122C2A00213
:10031300120122C5A002120122D2A002120122D58B
:10032300A0021201222CA1021201222FA10212010A
:100333002268A1021201226BA1021201226EA10204
:10034300120122D0A102120122D3A10212012227FB
:10035300A20212012270A20212012280A202120141
:1003630022B3A202120122C0A202120122C3A202DC
:100373001201222BA3021201222DA402120122D167
:10038300A4021201223AA50212012278A502120147
:10039300226AC30212012267C402120122FDC402AF
:1003A30012012248C502120122ACC50212012236F3
:1003B300C602120122EFC60212012211CA02120161
:1003C300228ECB02120122B1CB02120122E692034A
:1003D3001201228B9403120122AB9403120122CC4B
:1003E30095031201221F9603120122309B0312016F
:1003F30022589B03120122859B03120122BD9B03FA
:100403001201221B9C03120122679C03120122CEBC
:100413009C031201220E9D031201224B9D03120124
:1004230022799D03120122239E031201222D9E0392
:100433001201223A9E031201226D9E0312012279B8
:100443009E03120122919E031201229B9E0312011D
:100453002226D10312012234D1031201224CD103EB
:1004630012012264D1031201227BD103120122362D
:10047300D601120122E0D6011201225CD70112013A
:10048300227AD801120122B6D80112012251D901D0
:1004930012012235DA01120122F8DA011201227067
:1004A300DB01120122FEDC011201226FDD011201C8
:1004B3002229DE011201221BDF011201225BDF016F
:1004C3001201220FE00112012241E0011201223741
:1004D300E20112012279E20112012297E2011201E3
:1004E300221CE301120122E0E301120122FFE501D4
:1004F30012012216A3031201222CA3031201224A82
:10050300A3031201225BA40312012265A4031201B7
:100513002290A50312012287A603120122F4A60347
:10052300120122CEF90212012272FA02120122A949
:10053300FA0212012200FB0212012215FD0212012E
:1005430022EB98011201229C9901120122AC99011C
:100553001201224A9A01120122649A01120122B75E
:100563009A01120122C29A01120122989B011201DF
:1005730022759C01120122059D01120122BC9D01DD
:10058300120122CAA001120122B9A2011201226B97
:10059300A30112012234A40112012279A70112013D
:1005A3002223A8011201224CA90112012208AB0146
:1005B300120122A8AB01120122FBAB011201223A64
:1005C300AC011201220DAD0112012241AD01120154
:1005D30022CEAD0112012201C4011201228DC401F8
:1005E300120122F1C501120122FDC50112012238B7
:1005F300C601120122A7C601120122B0C7011201CE
:1006030022B9C80112012280C901120122DDCA01E7
:10061300120122FBCA0112012218CB01120122E3AB
:10062300CB011201220BCC01120122D5CE01120102
:1006330022DACE01120122F3D00112012241D101AB
:10064300120122B1D101120122EFD101120122CBF9
:10065300D2011201228BD301120122D7D30112013D
:1006630022DAD3011201221ED40112012266D4011F
:10067300120122A5D401120122C7D401120122FBC7
:10068300D4011201225ED501120122C4F402120127
:1006930022CDF402120122DBF4021201222EF50212
:1006A3001201224DF50212012292F502120122D605
:1006B300F60212012271F702120122B5F7021201AA
:1006C30022DFF7021201224EF80212012294F802ED
:1006D3001201220BF902120122BCF902120122A01B
:1006E3002400120122B0240012012251250012011C
:1006F30022AD25001201226A26001201228627005C
:10070300120122B82700120122E7270012012294C6
:1007130029001201220B2C001201227B2E00120150
:10072300226D2F001201226630001201226D320069
:100733001201226135001201229036001201229427
:100743003800120122A43900120122333B001201A6
:1007530022243C00120122723C00120122E13C00DF
:10076300120122053D00120122563D00120122F71B
:100773004100120122F842001201225943001201E2
:10078300228443001201224A4400120122299F03BA
:10079300120122339F03120122789F031201228C3C
:1007A3009F031201221CA00312012244A003120181
:1007B300227FA003120122A8A003120122DCA003BE
:1007C300120122F1A0031201225CA1031201227D76
:1007D300A10312012291A103120122A6A103120176
:1007E30022E0A10312012245A20312012288A203DF
:1007F300120122B2A203120122EEA2031201221A53
:10080300CE0312012299F4011201227CF501120197
:1008130022F7F50112012232F60112012283F701B8
:100823001201220CF80112012224FA01120122B64C
:10083300FC0112012268FD0112012287FE0112014F
:1008430022E0FE01120122A1EF02120122E4EF02D3
:1008530012012268F0021201223BF102120122125C
:10086300F402120122F6BA03120122A3BB031201FE
:1008730022B0BC03120122EFBC0312012249BD03C3
:100883001201224EC403120122B1C4031201224EEB
:10089300C5031201227CC5031201229DC503120167
:1008A30022D8C503120122F8C503120122EA8403E8
:1008B3001201227685031201223586031201224D8D
:1008C3008703120122678903120122B6B9021201BA
:1008D30022DBB902120122AFBA021201221CBB02AF
:1008E30012012272BB021201220EBC021201224229
:1008F300BD021201221DBE021201227CBE021201A0
:10090300224DBF02120122D9BF02120122DCBF0213
:1009130012012226C00212012298C00212012243B0
:10092300C10212012263C102120122ABC1021201F0
:1009330022C7C10212012241C2021201224FC20286
:10094300120122DEC20212012247C3021201225007
:100953008E03120122D58E03120122178F03120177
:1009630022FB8F03120122689003120122AC900331
:10097300120122F090031201221D9103120122455C
:1009830091031201227D9103120122BB91031201F3
:1009930022E291031201225C9203120122A6920326
:1009A300120122FB5C00120122C85E00120122B672
:1009B30060001201220A6100120122356100120156
:1009C30022E361001201221362001201224262003B
:1009D300120122556200120122966200120122C204
:1009E3006200120122106300120122476300120108
:1009F30022936300120122F2630012012285640034
:100A03001201226F65001201225E66001201223E6E
:100A130068001201225D6D00120122B66D00120101
:100A2300229F6F001201226E7100120122F07100E9
:100A33001201223E73001201224F7300120122940D
:100A4300BD031201227FBE03120122C2BE031201A3
:100A53002211BF0312012262BF03120122B3BF039B
:100A6300120122B64400120122374500120122640A
:100A73004500120122AD4500120122AE46001201CB
:100A830022FD4600120122794800120122FB480090
:100A9300120122584900120122AB49001201229A85
:100AA3004A001201222F4C00120122F94C001201BC
:100AB30022094D00120122334D00120122364D004E
:100AC300120122194E00120122044F00120122B119
:100AD3004F001201220E5000120122675000120132
:100AE30022CB50001201227351001201220F520037
:100AF3001201229C52001201221153001201226D95
:100B03005300120122CC5300120122F353001201AD
:100B130022B15400120122A25600120122EB560008
:100B23001201221B57001201228E570012012214B8
:100B33005900120122C45900120122E9590012017D
:100B430022285A001201223D5A00120122805A0023
:100B5300120122F05A001201223A5B0012012244D0
:100B63005C00120122C55C00120122F6AF021201E1
:100B73002241B0021201224DB00212012221B10220
:100B830012012238B10212012275B102120122A60A
:100B9300B102120122DEB10212012234B2021201A9
:100BA300224AB20212012286B20212012299B20231
:100BB300120122C0B202120122F4B2021201221A5D
:100BC300B40212012264B50212012260B6021201BC
:100BD300227DB70212012295240012012274EA0237
:100BE30012012222EE0212012256EF021201227298
:100BF30073001201223576001201223B76001201A6
:100C030022F87800120122527B001201229E8903EE
:100C1300120122358A03120122F38A031201221DD3
:100C23008B03120122538D03120122ED8201120163
:100C3300222883011201227C8D01120122E88E01F8
:100C4300120122E58F011201226A9301120122503F
:100C530094011201229C9401120122B69401120103
:100C630022F79401120122009501120122B095018D
:100C7300120122809601120122C796011201222D30
:100C830097011201229F9701120122DDB70312017E
:100C930022BAB803120122FEB80312012238B903A3
:100CA300120122D0B9031201223FBA0312012248D2
:100CB300BA0312012254BA031201226EBA031201BB
:100CC3002298BA03120122C8BA031201224EE40287
:100CD3001201225BE40212012275E402120122A82E
:100CE300E402120122E6E4021201224BE5021201A0
:100CF3002260E50212012277E50212012285E50254
:100D030012012294E502120122A9E502120122BE78
:100D1300E502120122C9E502120122D5E502120100
:100D230022E2E502120122F1E502120122FCE502B0
:100D330012012221E602120122C5E602120122DA81
:100D4300E602120122EFE60212012209E702120172
:100D53002226E70212012243E7021201224EE70292
:100D6300120122FAE702120122DBE8021201220039
:100D7300E9021201220BE90212012220E902120107
:100D83002234E90212012295E9021201229BE902AF
:100D9300120122A1E902120122A7E902120122BFD4
:100DA300E902120122F2E9021201229EA5021201B6
:100DB30022C0A50212012288A60212012242A90220
:100DC30012012258AA0212012279AB021201225304
:100DD300AC0212012202AD021201220580021201AD
:100DE300229C8002120122348102120122248202F7
:100DF3001201225B82021201226E8202120122DCA4
:100E030082021201227784021201229E84021201BD
:100E13002240850212012275850212012286850273
:100E2300120122FF850212012220860212012238BA
:100E3300860212012290870212012299890212016D
:100E430022E98B02120122EC8C021201223B8D0259
:100E53001201220CE60112012209E701120122F418
:100E6300E701120122FEE70112012220E80112012B
:100E7300222CE8011201227EE901120122ADE901CF
:100E8300120122DDEA011201221FEB011201224BA2
:100E9300EC0112012221ED0112012273ED01120175
:100EA30022D2ED0112012209EE0112012244EE01C8
:100EB300120122DFF101120122F8F1011201227A5B
:100EC300F20112012288F201120122DDF201120164
:100ED30022EBF20112012258F301120122CAF3019B
:100EE30012012210F401120122BEC703120122E3F0
:100EF300C70312012254C803120122D4CC021201E7
:100F030022DDCC02120122E6CC0212012217CE020C
:100F130012012236D0021201226CD002120122A643
:100F2300D002120122DCD00212012216D1021201D8
:100F3300224AD10212012276D102120122BFD1022A
:100F4300120122F9D10212012241D2021201229787
:100F5300D202120122CCD20212012227D3021201A1
:100F63002261D302120122B2D302120122E8D30278
:100F730012012222D40212012245D402120122BFFD
:100F8300D203120122EBD20312012246D303120130
:100F93002250D30312012260D303120122008003E3
:100FA3001201223E8003120122C58003120122DABC
:100FB30080031201222981031201226F810312018E
:100FC30022C881031201221782031201226E8203B7
:100FD300120122838303120122758403120122B2B8
:100FE300840312012289FF01120122C4AE011201FE
:100FF3002236B101120122A6B20112012203B3016A
:10100300120122A5B3011201229DB4011201221A79
:10101300B501120122AAB501120122CFB5011201B5
:10102300221FB601120122B7B8011201222BB90106
:1010330012012217BA011201224DBA0112012290A4
:10104300BA0112012207BC0112012233BC011201B1
:101053002275BC01120122BEBC011201222ABD016C
:1010630012012249BD0112012263BD011201228135
:10107300BE0112012291BE0112012214C00112010C
:101083002232C00112012268C001120122EEC10105
:1010930012012263C201120122A0C201120122D352
:1010A300C30112012206C60312012262C603120102
:1010B3002206C70312012225C70312012273C703A5
:1010C3001201220BD2031201221CD203120122B9F4
:1010D300D403120122F8D403120122E9FF01120101
:1010E300226AD3031201227AD30312012295D30376
:1010F300120122FDD3031201222ECF03120122B1CA
:10110300CF0312012217D0031201229DCC03120137
:1011130022C6CC0312012233CD0312012286CD0352
:10112300120122DFCD03120122A7B403120122BC54
:10113300B403120122BAB50312012252B6031201FB
:1011430022C6B603120122E0B603120122F7B60348
:1011530012012205B7031201221DB7031201223225
:10116300B70312012257B703120122A8B7031201D2
:1011730022FEA60312012215A7031201228EA70342
:1011830012012262A80312012234AA031201226E61
:10119300B103120122FEB1031201227CB203120138
:1011A300220DB3031201229FB303120122F2B303F0
:1011B300120122FCB3031201220BB40312012221F8
:1011C300B40312012234B40312012290B4031201B6
:1011D30022A4B403120122C4FE021201222EFF0232
:1011E30012012239FF0212012249FF021201225485
:1011F300FF0212012270FF0212012216CB03120119
:101203002239CB0312012262CB03120122FCCB034E
:1012130012012212CC0312012254CC03120122D355
:10122300D402120122DDD4021201221DD5021201C1
:101233002266D5021201229ED502120122F4D502A2
:1012430012012211D60212012290D8021201229910
:10125300D802120122DED80212012207D90212019A
:10126300221CD9021201228CD90212012219DA029C
:101273001201226DDA0212012290DA021201220F08
:10128300DB021201224ADB021201227FDB0212017E
:101293002291DB02120122B0DB02120122B9DB022E
:1012A3001201226BDC0212012274C903120122C54E
:1012B300C9031201224ECA03120122B8CA03120142
:1012C3002219AE0312012241AE0312012236AF03EB
:1012D3001201225BAF03120122F5AF031201228434
:1012E300B00312012230D00312012252C2031201B1
:1012F3002288C203120122BBC20312012214C403B7
:10130300120122657F001201227B7F0012012285D8
:101313007F0012012207D40312012297DC0212017B
:101323002251DD021201228CDD02120122BDDD02F7
:101333001201221DDE0212012267DE02120122BC0B
:10134300DE0212012247DF0212012240E0021201F3
:1013530022B6E10212012246E202120122ACE202AB
:10136300120122BFE202120122A4E302120122EEC1
:10137300E3021201222C9703120122429703120166
:1013830022E69703120122259803120122429803B1
:10139300120122739803120122C09803120122F34F
:1013A30098031201222E9903120122239B03120197
:1013B30022888D02120122918E021201222A8F02AB
:1013C3001201227B91021201229C91021201228CB2
:1013D3009302120122D993021201226C9402120188
:1013E30022AD9502120122299602120122A9960228
:1013F3001201225E9702120122B299021201220205
:10140300D5031201227FD50312012248D50312010D
:1014130022ABD503120122D97F00E066701008A326
:10142300E066700A08A3E066700408A3E06622C3BE
:10143300E7960809E7960809E7960809E79622C39D
:10144300E09608A3E09608A3E09608A3E09622C0DE
:1014530008C3E096F50808A3E096420808A3E096BF
:10146300420808A3E09645087001D3D00822080873
:1014730008EAC0E0EBC0E086F0E7A4FA180986F0BA
:10148300E7A42AFA180986F0E7A42AFA180986F0CD
:10149300E7A42AFA1986F0E7A4FBE5F02AFA19086B
:1014A30086F0E7A42BFBE5F03AFA190886F0E7A4E7
:1014B3002BFBE5F03AFA18180986F0E7A4C5F02BE0
:1014C300FBE43AFA1908E7C5F0C6A426F6E5F03BB3
:1014D300FBE43AFA1886F0E7A4F6E5F00826F6E40A
:1014E3003B08F6E43A08F6D0E0FBD0E0FA22E4CF7A
:1014F300C0E0E4CEC0E0E4CDC0E0E4CCC0E075F0F1
:1015030020E626F608E633F608E633F608E633F671
:10151300181818EC33FCED33FDEE33FEEF33FFC345
:10152300EC9709ED9709EE9709EF97191919400FF1
:10153300FFEC97FC09ED97FD09EE97FE191906D507
:10154300F0BFECF709EDF709EEF709EFF7191919F1
:10155300D0E0FCD0E0FDD0E0FED0E0FF2260160832
:101563000808C6C313C618C613C618C613C618C6BA
:1015730013C6D5E0EA227009080808226016181875
:1015830018C6C333C608C633C608C633C608C6332F
:10159300C6D5E0EA22E627F60809E637F60809E6A3
:1015A30037F60809E637F622E026F608A3E036F612
:1015B30008A3E036F608A3E036F622E026F008A3F7
:1015C300E036F008A3E036F008A3E036F022C3E6E5
:1015D30097F60809E697F60809E697F60809E697E5
:1015E300F622C3E096F008A3E096F008A3E096F095
:1015F30008A3E096F022E657F60809E657F608092D
:10160300E657F60809E657F622E056F608A3E05631
:10161300F608A3E056F608A3E056F622E056F008D3
:10162300A3E056F008A3E056F008A3E056F022E04A
:1016330066F608A3E066F608A3E066F608A3E0668C
:10164300F622E0F608A3E0F608A3E0F608A3E0F626
:1016530022E6F008A3E6F008A3E6F008A3E6F022EA
:10166300E0FAA3E0FBA3E0FCA3E0FD22EAF0A3EB96
:10167300F0A3ECF0A3EDF022E0F8A3E0F9A3E0FA85
:10168300A3E0FB22E8F0A3E9F0A3EAF0A3EBF02246
:10169300CAC0E0E6F0A308DAFAD0E0FA22CAC0E052
:1016A300E0A3C582CCC582C583CDC583F0A3C58223
:1016B300CCC582C583CDC583DAE6D0E0CA22C3E4B4
:1016C30098F8E499F91217028026C3E49AFAE49B86
:1016D300FBE920E7E9121702E498F8E499F922C339
:1016E300E498F8E499F9121702E498F8E499F9C335
:1016F300E49AFAE49BFB22EB20E7CFE920E7E0B989
:101703000010BB0008E88AF084F8AAF022E4FBC8C2
:10171300FA22EB70227B10C833C8C933C933500790
:10172300C39AC3DBF280069A50012ADBEAC833F47A
:10173300C8C933F4C9FA2275F008E4C833C8C933F9
:10174300C933C99AC99B5004C92AC93BD5F0ECFBDC
:10175300C833F4C8E4C9FA22600D08C6A2E713C669
:1017630018C613C6D5E0F322600C08C6C313C61807
:10177300C613C6D5E0F422700422600D18C6C33325
:10178300C608C633C6D5E0F41822251810AF08F5ED
:1017930018400C15198008F51840021519D2AF220C
:1017A30000C0D0251810AF08F518500C0519800893
:1017B300F51850020519D2AFD0D0222518F58210A2
:1017C300AF08F518400C15198008F51840021519D3
:1017D300D2AF851983222518F582E43519F58322C2
:1017E3002518F8E43519F9222518FAE43519FB22EE
:1017F3002518FCE43519FD22E4732518C582C0E0E1
:10180300E51934FFC583C0E0E518C3958224F810B9
:10181300AF08858319858218800885831985821806
:10182300D2AFCEF0A3E520F0A37808E608F0A3DE5C
:10183300FAEFF0A3E58124FAF8E608F0A3E608F04E
:10184300A3E608F0A30808E608F0A3E608F0A3154A
:10185300811581D0E0FED0E0F8158115811581E86E
:10186300C0E0EEC0E0222518C582C0E0E51934FFD0
:10187300C583C0E0E518C3958224F910AF088583BA
:10188300198582188008858319858218D2AFCEF016
:10189300A3E520F0A37808E608F0A3DEFAEFF0A3AF
:1018A300E58124FBF8E608F0A3E608F0A30808E6C0
:1018B30008F0A3E608F0A315811581D0E0FED0E07F
:1018C300F815811581E8C0E0EEC0E0228519838513
:1018D3001882E0A3FEE0A3F5207808E0A3F608DF72
:1018E300FAE0A3FFE0A3C0E0E0A3C0E0E0A3C0E010
:1018F300E0A3C0E0E0A3C0E010AF088582188583B1
:10190300198008858218858319D2AFD083D08202CB
:10191300011F851983851882E0A3FEE0A3F52078D3
:1019230008E0A3F608DFFAE0A3FFE0A3C0E0E0A32A
:10193300C0E0E0A3C0E0E0A3C0E010AF08858218D8
:101943008583198008858218858319D2AFD083D007
:101953008222C0D02518C582C0E0E51934FFC583B3
:10196300C0E0E518C3958224F310AF088583198579
:1019730082188008858319858218D2AFC8F0A3E93D
:10198300F0A3EAF0A3EBF0A37908E709F0A3D8FAF0
:10199300ECF0A3EDF0A3EEF0A3EFF0A3D0E0F0A3FF
:1019A300D0E0F0A3D0E0F0A3E520F0A3E5F0F0A3AE
:1019B30022851983851882E0C0E0A3E0F9A3E0FA49
:1019C300A3E0FBA37808E0F608A3DFFAE0FCA3E0BA
:1019D300FDA3E0FEA3E0FFA3E0C0E0A3E0C0E0A31B
:1019E300E0F5D0A3E0F520A3E0A3F5F010AF088560
:1019F30083198582188008858319858218D2AFD010
:101A030082D083D0E0F8D0E0327404800674028080
:101A1300027401C0E0F4041217BED0E01216932240
:101A23007404800474028000CCC0E0EDC0E0E518CB
:101A3300C39CCCAD1950011D10AF068C188D1980B5
:101A4300068C188D19D2AF1216A0D0E0FDD0E0FCA1
:101A530022D083D082E9C0E0E493A3C386F0C5F02B
:101A630095F0F908E493A386F0C5F095F0700BE4C4
:101A730093A3C3994005E9048002A3E475F002A48B
:101A83002582F582E5F03583F583D0E0F9E493A36D
:101A9300C0E0E493C0E022D083D082ECC0E0EDC08C
:101AA300E0E493A3FCE493A3FDED4C600D121AE66E
:101AB300EC24FFFCED34FFFD80EFE493A3FCE493FF
:101AC300A3FDED4C600D121B25EC24FFFCED34FF50
:101AD300FD80EFD0E0FDD0E0FCE493A3C0E0E4930D
:101AE300C0E022C0E0C3E4939608740193961840C3
:101AF3000FE49366700808740193661870007019F8
:101B0300A3A3C3E49396087401939618A3A3400D6B
:101B1300D0E0D0E0D0E0021AD6A3A3A3A3A3A3D01E
:101B2300E022C0E0C0F088F0E49366700808740116
:101B33009366187000A8F0A3A3700BD0F0D0E0D088
:101B4300E0D0E0021AD6A3A3D0F0D0E02274F612BC
:101B53001869EAFEEBFF8C088D09EE2434F8E43FA4
:101B6300F9E8FCE9FDEE2435121E1CFAEE243712C7
:101B73001E1CF88508F0A4C885F00A8509F0A42581
:101B83000AF9EA28F8E439F97A257B00121702EA00
:101B93008C828D83F0FA131313541FF8EE28F8E4A4
:101BA3003FF9E8245DF582E439F583E0C0E074078A
:101BB3005AF8D0E0B800028004C313D8FCA2E0EEC8
:101BC30050082434F582E43F80182436121E1CF595
:101BD300F0EA84A8F0EE28F8E43FF9E82438F58227
:101BE300E439F583E0F97F0302191574F7121869D4
:101BF300EAFEEBFFEE2434121E1CC0E0EE2435F5A2
:101C030082E43FF583D0E0F08E828F83A3A3A3A366
:101C1300A3A3A3C082C0838E828F83A3A3A3A3A302
:101C2300E0F8A3E0F9D083D082E0C398F508A3E0FD
:101C330099F509EE247F121E1C6401703EEE248088
:101C4300F582E43FF583C082C0838E828F83A3A392
:101C5300A3A3A3E0240108A3E03400F9D083D08236
:101C6300E0687003A3E06970127CC07D06120B0B61
:101C7300EE247FF582E43FF583E4F0AC08AD09EE92
:101C8300FAEFFB121B50E9F91223937F0202191595
:101C930074EF121869900369E064086005E0640753
:101CA300702A9061C8E06024900397E0F4601DE01F
:101CB300F875F00DA4C8AAF02AF9749928FE7403E4
:101CC30039FF8E828F83A3A3A3E07003021DA1902B
:101CD3006060E0C0E0EE2468F582E43FF583D0E085
:101CE300F0750CFC750D06750800750900E5D9142F
:101CF300F50AE5D95403F50E60127403650E6043CB
:101D0300E50A600AEE2467121E1C700280759006B5
:101D1300F7E06401601F121E1960047A0480027ADE
:101D230000E50AC39AFA95E0FB1209B58A088B0904
:101D3300EA45097005120D8D8064121E1970048A1C
:101D43000C8B0DE50A6012850C82850D83F50BE57E
:101D5300D9F0A3150BE50B70F6121E19604474FC41
:101D6300250AF50A780C121A10AC0AA90EEEFAEF3E
:101D7300FB120BD174021217A3E97026AA08AB0950
:101D83001212AF793D8E828F83A3A3A3A3E0FA7BC4
:101D93000012082FEEFAEFFB120B2F120C31790011
:101DA300806F7403650E6051850A107511007810F9
:101DB300121A10AC0CAD0DAA08AB09120B957402E4
:101DC3001217A3EE2468121E1C64807004747F80B3
:101DD30001E0F50C780C121A14E50EF50C780C12D0
:101DE3001A14A90AAC08AD09900397E0FA7B001214
:101DF30007FF74021217A38013900369E06408704D
:101E03000BAC0CAD0DEEFAEFFB120C01120D997930
:101E1300017F0A021915EE2483F582E43FF583E07E
:101E23002274F212186974FC12178DEAFEEBFF8913
:101E330009A2AFE433F508C2AF021EEEE0601B78DF
:101E43000C121A10AC0BA90EEEFAEFFB120BCB74AB
:101E5300021217A37404250BF50B7401250BF5D996
:101E6300850ED9E50B6018F50A850C82850D83E094
:101E7300F5D9A385820C85830D150AE50A70EA75E9
:101E8300E195EE2463F8E43FF97A007B00A2AFE426
:101E930033F50BC2AF88828983E0FCA3E0FDEC4DF0
:101EA300603A88828983E0FAA3E0FB8A828B83E02D
:101EB300FCA3E0FD88828983ECF0A3EDF08A828B9A
:101EC30083E4F0A3F088828983E0FCA3E0FDEC4D7A
:101ED300700A88828983A3A3E4F0A3F0E50BA2E050
:101EE30092AF1212AF9006C7E004F0EE2463121E05
:101EF3001CF8A3E0F9E8496064EE2463121E1C2475
:101F030002F8A3E03400F988828983E5822402F58C
:101F13000CE43583F50DE0F50BA3E0F50EEE24623A
:101F2300121E1C640170369061D0E0F8121E196015
:101F3300047C0480027C007480C398FA95E0FBE57E
:101F43000B2CF8E43400F9E82402F8500109C3EA41
:101F530098EB99A2D265D0334003021E3F9006C787
:101F6300E0604D9006C8E0F89006C7E0C398500CB7
:101F730074026509703A9006C9E060348E828F83DB
:101F8300A3A3A3A3E0851882851983121FC3740238
:101F93001217D9E8121FC39006C6E028F074021284
:101FA30017F3AA18AB1979011208599006C7E4F080
:101FB300E508A2E092AF74041217A37F0702191574
:101FC300F0A3E4F09006C7E0F822000000851A872A
:101FD300851BC622C0E074EB121955A2AFE433F59A
:101FE30008C2AF759B00906182E0A2E05030E5919A
:101FF300A2E0502A7591FE7401651A702112216ABC
:10200300120CC1122158121A231222CF7404121770
:10201300A3E9640170057901120CF1121C9390611C
:1020230082E0A2E5505DE591A2E550577591DF90FE
:102033000369E064076005E06408702F12216A7485
:1020430001651A703E120CC1122158121A23122272
:10205300CF74041217A3E9640170057901120CF11E
:102063007901EEFAEFFB121E248018E0640D701361
:1020730090038BE004F064287002E4F07A00E0F946
:10208300120D9F906182E0A2E6400302212DE591AB
:10209300A2E6400302212D7591BF900369E0640518
:1020A3007008120CA9120CB58003120CAF751A003C
:1020B300120D0FE990036AF07900120CF1120A7500
:1020C3007A017B00900368E0F912127F907803E0B5
:1020D300644270569006FBE014F0704EC2AF1220BB
:1020E300E400781DD0E0F618D0E0F6E59F5407F839
:1020F3007005750DFF8003750D7FC4C0E0781CE685
:10210300F50A08E6550DF50B740B780A12176BD018
:10211300E0250AF8906270E0A2E740F8E8C3339044
:102123006272F0906270E0D2E0F0906181E0A2E32D
:102133005009E5E9A2E3500375E9F7A3E0A2E750EC
:1021430009E591A2E7500375917FE508A2E092AFFC
:102153007F080219B48E828F83E0F8A3E0C82416A7
:10216300F582E438F58322900397E0F875F00DA427
:10217300C8AAF02AF9749928FE740339FF22C0E033
:10218300C0D0C082C083906183E0A2E05009E5BF64
:10219300A2E0500375BFFEE0A2E15009E5BFA2E152
:1021A300500375BFFDE0A2E25009E5BFA2E2500370
:1021B30075BFFBE0A2E35009E5BFA2E3500375BF7F
:1021C300F7E0A2E45009E5BFA2E4500375BFEFE0D6
:1021D300A2E55009E5BFA2E5500375BFDFE0A2E623
:1021E3005009E5BFA2E6500375BFBFD083D082D0AC
:1021F300D0D0E032C0E074F2121955E5A7A2E65040
:102203000FE5A1A2E6500953A7BF75A1BF12224B48
:10221300E5A7A2E5500CE5A1A2E5500653A7DF759B
:10222300A1DFE5A7A2E15009E5A1A2E1500375A151
:10223300FDE5A7A2E2500CE5A1A2E2500653A7FBDD
:1022430075A1FB7F010219B474F7121869751A019D
:10225300900369E064067015120C558A828B83A380
:10226300A3A3A3A3A3E0FAA3E0FB120C97A2AFE4FA
:1022730033FED2AF90036FE0640170187A207B00C5
:10228300900368E0F91213997A207B00900368E0C9
:10229300F9121285906182E0D2E6F09006F8E060D0
:1022A3002185C61B801690036EE064017008E5C6A5
:1022B30054F84405F5C653BEFC121FD07401651AC9
:1022C30060E4EEA2E092AF7F0202191574F11218D6
:1022D300698A088B098C0A8D0B90824D7808121637
:1022E3000C740F1217D9780C12164590824D780C86
:1022F30012160C7808790C121432908265501078FB
:1023030008790C1215D178081214524014800E78F3
:102313000C79081215D1780C1214525004790180EB
:102323000279007F0802191574ED1218698A088B67
:10233300098C0A8D0B90824D780812160C741312B7
:1023430017D9780C12164590824D780C12160C781A
:102353000C790812143240117808790C1215D1AA9D
:1023630008AB09AC0AAD0B8022751000751100751E
:1023730012007513017810790C1215D178107908B1
:10238300121598AA10AB11AC12AD137F0C021915DC
:10239300C082C083E9906000F0D083D08222C0E085
:1023A30074F2121955A2AFE433FED2AFC2C0E5D125
:1023B300A2E4500675D10F1211D1EEA2E092AF7FC5
:1023C300010219B4C0E074F2121955A2AFE433FE4E
:1023D300D2AFE589A2E15003121123758900C2C56A
:1023E300EEA2E092AF7F010219B4C0E074F21219B9
:1023F30055A2AFE433FED2AFE58BA2E05003121136
:1024030023758B00C2E880D8C0E0C0D0E8C0E0A844
:10241300A8D2AFC2C7E8A2E792AFD0E0F8D0D0D03D
:10242300E032C0E0C0D0E8C0E0E9C0E0EAC0E0EBE1
:10243300C0E0C082C083A2AFE433F9D2AF900F6291
:10244300E0F8A3E0687008539AFBA374018022C2EA
:10245300E9900F62E0F8740128F074E228F582E451
:10246300340EF583E0F5C1900F62E0C3948040021F
:10247300E4F0E9A2E092AFD083D082D0E0FBD0E0D9
:10248300FAD0E0F9D0E0F8D0D0D0E032C2AF020009
:10249300002202011FFFFFFFFFFFFFFFFFC082C0FB
:1024A30083E9901D47F0D083D08202011F74F61296
:1024B30017FDE99002DCF090033BE0F50875090095
:1024C3007402780812177AAA08AB091212F790025D
:1024D300DD122E639002DD123250606F90033BE0F9
:1024E30075F003A4FAABF01212F79002FA122E63FE
:1024F3009002FA123250700B9002DD123221121246
:10250300FD80489002FA1241B57AFF7BFF1210A5B5
:102513007A0080198A087509007402780812177AFC
:10252300123C5D74FF122663E4F0A3F00A90033BB0
:10253300E0F8EAC39840DD79051206F79002DCE083
:10254300F91205E37A817B07120955023D0074F401
:102553001217FD8A088B09EB548060479002DCE078
:10256300F91212678A0A8B0BAE0AAF0BEE4F602A81
:102573008E828F83E064B0701A120709E960148EAB
:10258300828F83A3A3A3A3E0F9EE2405FAE43FFB20
:102593001206D9EEFAEFFB121255AA08E509648078
:1025A300FB80047A007B000227B374F21217FD74D8
:1025B300FB12178DEAFEEBFFEE4F60457403121713
:1025C300D9EEF0A3EFF0851882851983ECF0A3ED23
:1025D300F074021217D9E9F0AA18AB191205DDE954
:1025E300F508707574131217D9E0F50AA3E0F50B1B
:1025F300E50A450B60638E828F83122BECEE4F70DE
:102603000575080280537A067B001212F78A0C8B39
:102613000DA80CA90DE8497005750813803B888245
:102623008983E4122663EEF0A3EF12277FE50AF015
:10263300A3E50BF09002E01227789002E06017E028
:10264300FCA3E08003EAFCEBFD8C828D83122778E8
:1026530070F38C828D83123878A90874050244358F
:10266300F0A3124197A32274F21217FD8908890C73
:10267300750D007403780C12177A850C0A850D0BFF
:102683009002DFF09002DD123683122776602E125D
:1026930012FD7900801D890C750D007402780C12EF
:1026A300177A9002DD123B1C8882F583A3A3E4F022
:1026B300A3F00990033BE0F8E9C39840D990033BAA
:1026C300E0FA850AF0A4CAA8F0850BF0A428FB124F
:1026D30012F78A0C8B0DAE0CAF0DEE4F7003022771
:1026E3006C90033BE0FC850AF0A4CCA8F0850BF0CA
:1026F300A428FD790012123D7C0080318D0C750DEC
:10270300007403780C12177A8A828B8312277188DC
:10271300828983E4F012277EA3A3F0A3F00DEDC317
:10272300950840D8EE250AFEEF350BFF0C90033BCE
:10273300E0F8ECC39850288C0C750D007402780CEB
:1027430012177A9002DD122771E82402500109FA68
:10275300E9FB8A828B83EEF0A3EFF07D0080BFE577
:10276300089002DFF0790080027913024438123BAB
:1027730020F922A3A3123225EA4B22A3124197A3E5
:10278300A3A32274F41217FD7900EAA2E0501F7587
:10279300083D7509827808121A1079107C047D00AF
:1027A3007A497B1D1206F174021217A3E9F980001E
:1027B3007F040218CFC082C0839002E012325060BF
:1027C3001C88828983A3A3E06A7003A3E06B8882D9
:1027D300898370E8A3A3A3A312322180047A007B28
:1027E300000224A974F21217FD74FD12178DEAFE7C
:1027F300EBFF851882851983E4F0A3F074021217A6
:10280300D97401F012324D70141208A71212F79006
:1028130002E3122E6312324D7003022979122F63E1
:10282300EE2404F50AE43FF50B850A82F583E024E0
:10283300FE603C24FC607424FE607E24FE70030270
:1028430028C924FE70030228D624FE70030228E35D
:1028530024FE70030228F024FE70030228FD24FCEA
:10286300700302291E24FE70030229360229721204
:1028730008A79002E5EAF0A3EB122985120253E9B7
:1028830060030229729002E5121A278E828F83A3B6
:10289300A3A3A3A31241B58508828509831232211C
:1028A3001206C174021217A3022972AC18AD19EEF5
:1028B300FAEFFB12070F022941AC18AD19EEFAEF3C
:1028C300FB1207158078AC18AD19EEFAEFFB12076F
:1028D3001B806BAC18AD19EEFAEFFB120721805E7B
:1028E300AC18AD19EEFAEFFB1207278051AC18AD07
:1028F30019EEFAEFFB12072D804474021217E388D6
:102903000C890D780C121A1074021217F3EEFAEFF9
:10291300FB12073374021217A38023AC18AD19EE10
:10292300FAEFFB120739E9F8701674021217D9E4AB
:10293300F0803CAC18AD19EEFAEFFB12073FE9F853
:10294300E8602C8E828F83A3E064146022850A8260
:10295300850B83E09002E5F0851882851983123296
:10296300219002E6122E63E8A312298512024DEE8E
:10297300FAEFFB12069774021217D9E0F9740302F7
:102983004435F07CE57D0285088285098312322572
:102993002274E81217FD74FA12178D74041217D9F2
:1029A300ECF0A3EDF08A128B13EA2405F50EE4355F
:1029B30013F50FEA2402F510E43513F5118510829F
:1029C300F58312322112038B8A0A8B0B7508007C64
:1029D300037D0079007AE57B0212123DE50E2402A5
:1029E300F516E4350FF51774021217E3880C890DF9
:1029F300780C121A10850E82850F83A3A3A3A3E07C
:102A0300F50C750D00780C121A10E50E2405F50C63
:102A1300E4350FF50D780C121A108516828517838D
:102A23001235281205FB74061217A38A0C8B0DE5C9
:102A33000C450D7003022BB5802085188285198300
:102A4300E088828983F00508851882851983A3E0CD
:102A5300C0E0122BF6D0E0F00508E50A24FBFAE506
:102A63000B34FFFBC3E5089AE49B4003022BB57EBE
:102A7300007F00851282851383A3A3A3A3E0F50936
:102A83007809121A14E4F514F5157814121A10754E
:102A930014E27515027814121A109002E3121A2721
:102AA30074091217D9121A27E50A24F9F9AC0CADE7
:102AB3000D85108285118312322112076974091260
:102AC30017A3E96003022B56850E82850F83A3A308
:102AD300A3A3A3A3A3E0F89002E2E0687075E0F576
:102AE300148E157814121A101241B2850E82850FB6
:102AF30083A3A3A3A3A3A3A3A31232211212377404
:102B0300021217A3E9604C9002E6123250703BE4C4
:102B1300F5147814121A107CFF7DFF790785108253
:102B23008511831232211206D374021217A31232B3
:102B3300567017850E82850F8312434F7404121744
:102B4300D9123C10123559022BE9850C82850D836D
:102B5300122BECA818A919881489157814121A10C5
:102B630074041217D9121A27851682851783122E19
:102B73005912060774041217A38A0C8B0DEE4F70BB
:102B830003022A32122BF6EE122C0112350FEF122A
:102B93002C01F8A3E03400F9E50C450D6003022A8B
:102BA3003D8882898374FFF00508122BF674FFF0C9
:102BB3000508E508601A1313543F122E6912025FC9
:102BC300E960099002E61232211212AF79008016F1
:102BD300850E82850F8312434F74041217D9123C5A
:102BE30010123878790A0234E2A3A3A3A3E0FEA368
:102BF300E0FF22A8089002E6E02812350F22F00534
:102C030008089002E6E0282274E81217FD74FA120D
:102C1300178D74021217D9122E6374041217D9EC8C
:102C2300F0A3EDF074021217D9E024051234F8E092
:102C3300F50CA3E0F50D74021217D9E02402F51088
:102C4300A3E03400F511851082F5831232211203BB
:102C53008B750800750900EA24FCFEEB34FFFF8046
:102C630008050CE50C7002050DA808C3EE98EF9457
:102C7300005003022E15A818A919880E890F780E83
:102C8300121A10851482851583A3A3A3A31241B935
:102C9300121A10E5142405F50EE43515F50F780E18
:102CA300121A10851482851583122E571205FB7490
:102CB300061217A38A0E8B0FEA450F7003022E1517
:102CC300EA2404F516E4350FF517851682F583E03B
:102CD300F50CA3E0F50D8518828519831241B58A99
:102CE300828B83A3A3A3E0F985108285118312321B
:102CF300211205E9E9F5096003022E157402121782
:102D0300D912351FF5097809121A14E4F512F513CF
:102D13007812121A107512E27513027812121A1031
:102D23009002E3121A2774071217D9121A27EEF921
:102D3300AC0EAD0F85108285118312322112076903
:102D430074091217A3E9F5096003022E15E508704B
:102D53003FE4F50EF50F780E121A107CFF7DFF7914
:102D6300098510828511831232211206D37402124F
:102D730017A3123545700D74041217D9122E4C790E
:102D830011022E499002E2E024029002E6F0801440
:102D93009002E6E0FA9002E2E07900240250010991
:102DA3006A497072A8089002E2E0FAE82AFAE43469
:102DB30000FBEE9AEF9B405A851682851783E0C08D
:102DC300E09002E7122BFBD0E0F005088516828520
:102DD3001783A3E0C0E0089002E7122BFBD0E0F0DA
:102DE30005089002E21241B9121A101241B2A80862
:102DF3001234EC12122574021217A39002E2E0259A
:102E030008F50874FF650C700474FF650D60030218
:102E13002C64E508601F9002E6E0F5F0E5088412F3
:102E23002E69120265E960099002E712322112123B
:102E3300AF79008011E509700375090A740412174C
:102E4300D9122E4CA9090234E2123687E50CF0A3FD
:102E5300E50DF022A3A3124444AA0CAB0D22A3A3B5
:102E6300EAF0A3EBF0229002E5F07CE57D02851009
:102E7300828511831232252274EC1217FD74FC1221
:102E8300178D12398874021217F312321B120601BE
:102E93008A0C8B0DEA450D7003022F53122F63A882
:102EA30018A919881089117810121A107CFF7DFF58
:102EB300790B8508828509831232211206D37402A5
:102EC3001217A3123059700C850A82850B831235B1
:102ED30056022F608E828F83A3A3A3A3E0F51278FB
:102EE30012121A14E4F512F5137812121A1075124D
:102EF300E57513027812121A107810121A10740959
:102F03001217D9121A2774091217D9E0F9AC0CADAC
:102F13000D8508828509831232211207697409120B
:102F230017A3E9FE70157CE57D0285088285098378
:102F330012322112026BE97009802074166E70023E
:102F43007E009002E61232211212AFEE7004800B63
:102F53007E01850A82850B83123875EEF902388A61
:102F6300EE2402F508E43FF5092274EC1217FD7410
:102F7300FC12178DEAFEEBFF8C0E8D0FEE2405F588
:102F830008E43FF50974021217F385088285098363
:102F93001232211206018A0C8B0DEA450D700302D1
:102FA3003049EE2402F50AE43FF50BA818A9198865
:102FB3001089117810121A107CFF7DFF790D1232DF
:102FC3001B1206D374021217A3123059700B850813
:102FD30082850983123556807A8E828F83A3A3A3B9
:102FE300A3E0F5127812121A14850882850983A3C7
:102FF300A3121A277512E57513027812121A1078A4
:1030030010121A1074091217D9121A2774091217F9
:10301300D9E0F912321712076974091217A3E9FEEE
:10302300700F7CE57D0212321B120271E970098078
:103033002074166E70027E009002E6123221121284
:10304300AFEE7004800B7E018508828509831238F8
:1030530075EEF902388A123260F510A3E0F511EA31
:1030630045112274E81217FD74FE12178D8A168B10
:10307300178C148D15EA2405F50CE43517F50DEAC4
:103083002402F50EE43517F50F850E82F58312320F
:103093002112038B8A088B09750B007C037D007951
:1030A300007AE57B0212123D750A00E50814F5105B
:1030B3000424FFF508E50934FFF50980549002E57F
:1030C300E0FA9002E2E0F8EA28F8E43400F9E508CF
:1030D30098E50999500D9002E5E0F8E510C3989042
:1030E30002E2F0E0F5127513007812121A10124181
:1030F300B29002E6E02AFAA3E03400FB1212257430
:10310300021217A39002E2E0F89002E5E028F0052E
:103113000A850C82850D83A3A3123B2C4003023145
:10312300FC9002E5E0C39508E4950940030231FCF5
:10313300AE0AEE2EFEE433FF12323BAC18AD191289
:1031430041CDE439FB1206018A128B13AC12AD1385
:10315300EC4D701B750B0112322B1238799002E67D
:1031630012277860031212AFA90B74020234E485AC
:103173001682851783A3A3A3A3E0F50B780B121A7A
:1031830014E4F512F5137812121A107512E275137E
:10319300027812121A109002E3121A2774071217F8
:1031A300D9121A27A910850E82850F831232211294
:1031B300076974091217A3E9F50B709B9002E612D5
:1031C300325060030230C0E4F512F5137812121A7C
:1031D300107CFF7DFF790F850E82850F83123221CC
:1031E3001206D374021217A312325660030230C0C0
:1031F30012322B12355A02316D7CE57D02850E8227
:10320300850F83123221120277E96003023160795C
:103213000002316DAC0CAD0D850A82850B83123231
:103223002522E0FAA3E0FB2212323BE0FAA3E0F905
:10323300EA85148285158322850C82850D83E02E11
:10324300F8A3E03FF988828983229002E312435373
:10325300E84922123260F8A3E0F9E849229002E635
:10326300EAF0A3EBF09002E6E02274E81217FD7493
:10327300FA12178D74041217D9122E638C168D1738
:1032830074041217D9E02405F50EA3E03400F50FFA
:1032930074041217D9E024021234F81232211203F3
:1032A3008B8A0A8B0B7F007E00A818A919880889CE
:1032B300097808121A10850E82850F83A3A3A3A38E
:1032C300E0F5088E097808121A10E50E2405F508B2
:1032D300E4350FF5097808121A10850E82850F83DD
:1032E300A3A31235281205FB74061217A38A0C8BAD
:1032F3000D8029123519F00F123519F00F9002E2E3
:10330300123864121A101241B2EFF81234EC12128E
:103313002574021217A39002E2E02FFFE50C450D7E
:1033230070030233A885188285198312399AA3A3DF
:10333300A3E0F98514828515831232211205E9E988
:10334300FEE50C2404F510E4350DF511EE70507410
:10335300041217D912351FF5087808121A14E4F568
:1033630008F5097808121A107508E2750902780839
:10337300121A109002E3121A2774071217D9121A9D
:1033830027E50A24FAF9AC0CAD0D85148285158363
:1033930012322112076974091217A3E9FE60391268
:1033A3003535123878EF70030234CF9002E6E0F53A
:1033B300F0EF849002E5F07CE57D028514828515AB
:1033C3008312322112027DE960099002E712322151
:1033D3001212AF79000234E28F08EF703BE4F5126A
:1033E300F5137812121A107CFF7DFF791185148270
:1033F3008515831232211206D374021217A31235D4
:103403004570091235351235590234E29002E2E073
:1034130024049002E6F080359002E2E0F89002E6A0
:10342300E0FAE82404FCE43400FDEC6A4D60030296
:1034330033AEE50A24FAFAE50B34FFFBE50828F876
:10344300E43400F9EA98EB9950030233AE85108215
:10345300851183E0C0E09002E7E02FF8A3E0340099
:103463008882F583D0E0F00F851082851183A3E075
:10347300C0E0123506D0E0F00F74021217E388089B
:1034830089097808121A1074021217D9121A27859B
:103493000E82850F83122E5712060774041217A388
:1034A3008A0C8B0DEA450D70030232F67402121773
:1034B300D9E0C0E0123506D0E0F00F74021217D93C
:1034C300A3E0C0E0123506D0E00232FEEE70027EC9
:1034D3000A850E82850F8312353B123878EEF97414
:1034E300061217A37F100218CF9002E7E028FAA371
:1034F300E03400FB22F514A3E03400F515851482B3
:10350300F5832212350A229002E7E02FFAA3E03472
:10351300008A82F5832212350A74FF22123687A3AA
:10352300A3A3A3E022124444850E82850F831232A3
:1035330025228510828511831243538516828517B0
:1035430083229002E7EAF0A3EBF09002E7124353E1
:10355300E8492212387EE8F0A3E9F079112274EAEF
:103563001217FD74FE12178D8A088B098C128D13A6
:10357300EA2405FEE43509FFAC18AD198E828F836A
:103583001232211206018A0C8B0DEE2406F50EE48D
:103593003FF50FEA450D7003023659E5082402F59D
:1035A3000AE43509F50B8A828B83A3A3A3E0A2E582
:1035B300502885188285198312322112075D8A10DB
:1035C3008B11EA451160207912123217851082851A
:1035D30011831217FBE9F50C707F850E82850F832B
:1035E300E0600979528011750C0E806D8508828523
:1035F3000983A3A3A3A3E0F9E4F508F50978081266
:103603001A108E828F83A3A3E0F5087808121A108C
:103613008E828F83A3A3A3121A278E828F831241D4
:10362300B512321B12076F74061217A3E9F50C705B
:1036330011850E82850F83E0702D12321B120283D7
:1036430080257416650C7011750C0074181217D947
:10365300123683E48010750C0112434B8512828568
:103663001383E8F0A3E9F0850E82850F83E06004FD
:1036730079008002A90C74021217A37F0E0218CFDF
:1036830012368722E0F8A3E0F58388822274EC12D5
:1036930017FD74F712178D8A0A8B0B8C108D11EAA4
:1036A3002405FEE4350BFF750C00AC18AD198E82B2
:1036B3008F831232211206018A088B09EA450970A9
:1036C3000302384FE50A2402F50A5002050B8A82E9
:1036D3008B83A3A3A3E0A2E5502F851882851983CA
:1036E30012322112075D8A0C8B0DEA450D604F796A
:1036F30012AC08AD0912321B850C82850D8312179B
:10370300FBE9F50C6003023852850A82850B83E0DE
:10371300F508A3E0F509AA08FB120751EA4B701953
:103723007AFF7BFF120751EA4B70030238458A8206
:103733008B83E508F0A3E509F07508008008750C94
:103743000E02385205089002DFE0F8E508C39840FE
:103753000302384585080E750F007403780E12179F
:103763007A8A828B83A3A3E0250EF8A3E0350F1298
:103773003C1970D08E828F8312386D122E638E8225
:103783008F83A3A312386D122E61EE2404F508E48F
:103793003FF509850882F583E088828983A3A3A383
:1037A300A3F0A3E4F0EE2405F50EE43FF50F850E38
:1037B30082F58312386DA3A3A3A3122E617512079A
:1037C3007513007812121A10EEFCEFFD7404121731
:1037D300EB12122574021217A3E4F5127812121ACF
:1037E30010850882850983E0FC7D00791712321B5E
:1037F3001206D374021217A374071217D9122E6379
:1038030074071217D9E0FA4B603D85088285098356
:10381300123864121A10850E82850F831241B51275
:10382300122574021217A374021217F312321B1219
:103833000289E9602674071217D91232211212AFD6
:103843008019750C098008750C118003750C011221
:10385300434B851082851183123878A90C74098033
:1038630028E0F50875090078082212322588828934
:10387300832212387EE8F0A3E9F022E0F8A3E0F90E
:10388300850E82850F832274041217A37F0C0218FE
:10389300CF74EC1217FD123988751000EE2402F56F
:1038A3000CE43FF50D850C82F5831232211207518A
:1038B3008A088B09EA4509700302396C850A8285F7
:1038C3000B83E064016003023961AC08AD09AA0A05
:1038D300AB0B120745E9606E850882850983122BBD
:1038E300EEEE2406F50AE43FF50B8E828F83A3A345
:1038F300121A278E828F83A3A3A3A3121A27850AE2
:1039030082850B83121A2779188E828F8312399A34
:1039130012322112076F74061217A3E9F87416689E
:10392300700B850A82850B83E4F0A38014E8601290
:103933008E828F83123221850E82850F83EAF0A354
:10394300EBF088108018780E121A10AC08AD09EE4F
:10395300FAEFFB12074B74021217A3E9F510AA083A
:10396300AB09120757E510700E850C82850D831283
:10397300322112028F8009741665107003751000CE
:10398300A91002388FEAFEEBFF8C0E8D0FEE240593
:10399300F50AE43FF50B22124444850C82850D831E
:1039A3002274EA1217FD7508007509007E007F0076
:1039B300750A00EC2402F510E43DF5118035EC6541
:1039C300087003ED65096003023A5988828983A36D
:1039D300A3E06A7003A3E06B707C88828983A3A34E
:1039E300A3A312434FEE28FEEF39FFEA28FAEB397F
:1039F300FB050A123B29503A850A0C750D00740326
:103A0300780C12177A851082851183123B1C123CA5
:103A130019601FE508450970A58C088D09888289FE
:103A230083122BEC88828983A3A3E02EFAA3E03FC1
:103A330080BEE50AC394025003023B177508007564
:103A43000900EE4F6010EEFAEFFB1212A98A0E8BFB
:103A53000FEA450F70057900023B19750B00023A16
:103A6300EC850B0C750D007403780C12177A851016
:103A730082851183E0250CF50CA3E0350DF50DE5EA
:103A83000C2406F514E4350DF515851482F583121F
:103A93003C1E6042E50C2404F512E4350DF5138554
:103AA3001282F583121A27E50E2508FAE50F350968
:103AB300FB12122574021217A3851282851383E069
:103AC3002508F508A3E03509F509851482851583D2
:103AD3001232211212AFE50B600D7C087D007900D4
:103AE300AA0CAB0D12123D050BE50BC3950A50034F
:103AF300023A6485108285118312434F8882898339
:103B0300A3A3A3A3A3A3E50EF0A3E50F12277FEEC0
:103B1300F0A3EFF0790102367E123B2022E0250C60
:103B2300F8A3E0350D229002DFE0F8E50AC39822FE
:103B330074F01217FD8A0E8B0F8C0A8D0B750D0016
:103B4300750C0080507916EE2406F508E43FF5095C
:103B53008E828F83A3A3121A278E828F83A3A3A39C
:103B6300A3121A27850882850983121A27850E82D4
:103B7300850F83A3A312322112076F74061217A3B2
:103B8300E9F50D7416650D706C850882850983E46B
:103B9300F0A3F0050C9002DFE0F8E50CC398506643
:103BA300AA0C8A087509007403780812177A850A23
:103BB30082850B83A3A3123C68E8FEE9FF8E828F04
:103BC30083123C1E6040EA2401F508E43400F50941
:103BD3009002DFE065087002E5096014888289833A
:103BE300A3A3A3A3A3A3A3A31232506003023B483E
:103BF3007918023B4AE9609B12434B74101217D9A0
:103C0300123C10123878A90D7F080218CFE0FAA3EE
:103C1300E0F5838A8222F988828983124444EC4D39
:103C23002274F61217FD7C0080010C90033BE0F830
:103C3300ECC398501E8C087509007402780812179B
:103C43007A123C5DE06A7003A3E06B70DDE8FAE989
:103C5300FB80047A007B00023D009002DD123C6889
:103C63008882898322E02508F8A3E03509F92274C4
:103C7300F21217FD8A088B09750A0080278E828F3E
:103C830083A3A3A3A312277660031212AF7C087D3C
:103C9300007900EEFAEFFB12123D8E828F83E4F07F
:103CA300A3F0050A123B295027850A0C750D0074F1
:103CB30003780C12177A850882850983A3A3E0256C
:103CC3000CFEA3E0350DFF8E828F8312325070AD50
:103CD30085088285098374FFF0A3F002443874F6E3
:103CE3001217FD1207038A828B83E58245837006D0
:103CF3007A007B008007A3A3A3A31232217F0202D1
:103D030018CF74F41217FD89088C828D83E0640246
:103D1300703C1242EEFEA3E0F9EEF8740268700301
:103D23007429697029750A02750B00780A121A1032
:103D330074101217D9121A2774101217D9121A27CE
:103D4300A9081210AB74061217A3E9F980027901CE
:103D53000227B374E81217FD74FB12178DE9851857
:103D630082851983F08A168B17ECFEEDFF75100020
:103D73008E828F83A3A3A3E0A2E4502D741D121798
:103D8300D912322112075D8A828B83E582458370C3
:103D93000302418D790AEEFCEFFDAA16AB17121749
:103DA300FBE9F5106003024190741F1217D9E0F587
:103DB30008A3E0F50974211217D9E0F50AA3E0F589
:103DC3000B74231217D9E0F50EA3E0F50F8E828F43
:103DD30083E06402600302412EA312434F850882ED
:103DE300850983A3858212858313EE2406F50CE4EB
:103DF3003FF50D888289831241CDF514E439F51519
:103E03007814121A9A010000280128303E07000294
:103E130028F53E0328633E0029244001294F400230
:103E230029F03F032924400429C8402E41E50E45CB
:103E33000F6003024129850C82850D8312434FE8ED
:103E4300FAE9FB8A828B83E0850A82850B83124120
:103E5300D8121A108A828B83A3E0FCA3E00240B23B
:103E6300E50E450F6003024129850A82850B8374A1
:103E730001F01241C2850882850983F07C007D0030
:103E83008E828F83A3A3A3A3E02401FAA3E03400CB
:103E9300FB120601EA4B60408A828B83E02402F81E
:103EA300850A82850B83E028F0EA2404F8E43BF9D1
:103EB30088828983E08512828513831241E6124149
:103EC300D8121A108A828B83A31241B5E508240302
:103ED300FAE43509FB0240B7850A82850B83E024A7
:103EE30004F07C047D007900AA12AB1312123D0288
:103EF3004190E50E450F60030241291241C2FEA322
:103F0300E0FF850A82850B837404F0EE85088285C1
:103F13000983F0EF851282851383F074031217F37C
:103F2300EEFAEFFB1206018A0C8B0DEA450D7003C6
:103F3300023FD38A828B83A3A3122BEC7401121743
:103F4300E3880E890F780E121A1074051217D9120E
:103F53001A277CFF7DFF12060774041217A38B0F29
:103F6300EA450F7033850C82850D831241B9121A0D
:103F730010850C82850D83A3121A277C027D007A9B
:103F8300E07B8212037974041217A3E9700A7401A7
:103F93001217D974FFF0A3F08E828F83E06402704E
:103FA30039750C02750D00780C121A108E828F83EE
:103FB300A31241B5E5082404FAE43509FB121225DE
:103FC30074021217A3850A82850B83E024028009F9
:103FD30074011217D9EEF0A3EFF074011217D9127E
:103FE30041A774011217D912419E024123E50E45E0
:103FF3000F6003024129850C82850D8312443DAA7B
:1040030016AB171210B1850A82850B837402F085F3
:104013000882850983EAF0851282851383EB0241C6
:1040230026E50E450F60030241291241C2F8A3E0C1
:10403300F9850A82850B837402F0E8850882850975
:1040430083F0E9851282851383024126850C8285DC
:104053000D8312322112121FEAFAF8C3950EE4956A
:104063000F405CE8650E450F70047A0080218518C7
:1040730082851983E0FCE50E2CFCE4350FFDC3ECCF
:1040830098ED94005003E08005E50ECAC39AFAEA5E
:10409300850A82850B83F08A0A750B00780A121A47
:1040A30010850C82850D83E0250EFCA3E0350FFD02
:1040B300AA08AB0912122574021217A302419075C4
:1040C3001007024190E50E450F705B850C82850D4C
:1040D3008312434F850A82850B837407F088828994
:1040E3008312419F124197E0851282851383F0E882
:1040F3002402FAE439FB8A828B831241A78A828BDA
:104103008312419EA3A312277E1241ACF0E824053B
:10411300F8500109888289831241ACA31241E6A3B6
:10412300A3A3A3F0806775100B8062741D1217D9C7
:104133001232211207038A828B83E5824583604A08
:1041430012434F880C890DE8450D603E7425121704
:10415300D9E0F5107810121A14780E121A10780A92
:10416300121A107808121A1074071217D9E0F9EE10
:10417300FCEFFDAA16AB17850C82850D831217FB86
:1041830074071217A3E9F510800375100EA91074B4
:10419300050234E4F088828983A322A3E0850882A0
:1041A300850983221241EDF0221241EDA3A322904F
:1041B30002E312444422E0F50E750F00780E2285C7
:1041C3000C82850D83123687E022E0FAA3E0F8E43F
:1041D300C8F9EA2822F08A828B83E0F50A750B007E
:1041E300780A221241971241ED22E085088285095F
:1041F30083A3A32274EE1217FD74FE12178D8A088F
:104203008B09ECFEEDFF890AAC18AD19EEFAEFFB52
:104213001206018A0C8B0DEA450D70030242DF85FD
:1042230018828519831232211207038A828B83E550
:1042330082458370030242DAA3A312434F880E8997
:104243000FE8450F70030242DA74141217D9E0F530
:1042530010A3E0F511E50AF50B780B121A14741983
:104263001217D9121A277810121A10741B1217D9A1
:10427300E0F9AC0CAD0DAA08AB09850E82850F835E
:104283001217FB74051217A3E9F50B705274FE6540
:104293000A604C850C82850D83E0640270411242F2
:1042A300EEFAA3E0F9EAF8740268700374296970FE
:1042B3002E8510828511831241CDF50CE439F50D5D
:1042C300780C121A10EEFCEFFDAA08AB091207874F
:1042D30074021217A38008750B0E8003750B01A9D6
:1042E3000B74021217A37F0A0218CFA31243538839
:1042F300828983E02274F61217FD74FE12178D74FF
:104303000C1217D912434FE8851882851983F0746C
:10431300011217D9E9F0E4F508F5097808121A1023
:104323007508027808121A1074041217E3880889B2
:10433300097808121A1079FE12076F74061217A370
:1043430074021217A3023D008E828F8312435322FD
:10435300E0F8A3E0F92274F71217FDEAFEEBFF89F8
:10436300089002FA1241B51210B1EA5402600BA987
:1043730008EEFAEFFB1205F5800279017F010218BE
:10438300CF74F21217FD74FE12178DEAFEEBFF894C
:104393000A7401650A60147402650A6003024433F7
:1043A3007901120973E96003024433EEFAEFFB1259
:1043B3000751EA4B6003120757A818A919880889FF
:1043C300097808121A107508027509007808121A7C
:1043D300107508E87509827808121A107CFF7DFFB2
:1043E3007A017B001205FB74061217A38038850837
:1043F30082850983A3A3A3A3A3A312443DEEFAEFEB
:10440300FB1210A5E4F50CF50D780C121A107402CA
:104413001217D9121A277CFF7DFFAA08AB091206CF
:104423000774041217A38A088B09E508450970BEAF
:1044330074021217A37F060218CF12368712444460
:1044430022E0FCA3E0FD2274F41217FD8A088B0915
:10445300ECFEEDFF901D47E0F4604B7A097B001200
:10446300124FEA4B60408A828B8374B1F0A3E4124B
:1044730044ACF08A828B83A3A3E508F0A3E5091279
:1044830044ACA3EEF0A3EFF0740C1217D912434F10
:104493008A828B83A3A3A3A3A3A3A3123878901D1B
:1044A30047E0F912125B0227B3F08A828B83A3A33E
:1044B300A3A322C082C0839061907404F0A37448C4
:1044C300F0A37402F09061807440F09061BC7403B7
:1044D300F09061877419F0906265741BF0906249E3
:1044E300E0C3941390619C40107409F0906066746B
:1044F30001F090619F7428800D740BF0906066E466
:10450300F090619F742CF01246A17009C291900340
:104513006D7467800590036D7461F01246F3902407
:1045230098E493F46006E493F9120A697905120D8D
:1045330081024935C082C083E9540FF9906185E057
:10454300696012E5C654B84441F5C6E59E54476414
:104553004170F8E9F053C6B8E59E544770FA024932
:1045630035C082C083A8A853A87E906181E4F0A3DC
:10457300F0A3F0C2BA539AFEC289759B00C2C275FA
:10458300E90075910075BF0075A91175B9059061B2
:1045930081F0A374C0F0A3E4F0D2BA439A0174800B
:1045A3005842A8024935F0024935C082C08374F8E5
:1045B30012178D90036B125CB3700302469990033C
:1045C3006BE0544060177908AA18AB19120B77AA4D
:1045D30018AB191207E790036BE054BFF0E0548067
:1045E3006010790C7A1C7B07120B7790036BE054F5
:1045F3007FF0E0A2E0501E1246A17009C291900321
:104603006D7467800590036D7461F01207ED90037C
:104613006BE054FEF0E05402601E1246E67009D2CD
:104623009190036D7471800590036D746AF01207A5
:10463300ED90036BE054FDF0E05404601090249C73
:104643001246F61207F390036BE054FBF0E05408B4
:10465300601090249D1246F61207F390036BE0540A
:10466300F7F0E05410600D1246F31207F390036B5A
:10467300E054EFF0E05420600A1207F390036BE07C
:1046830054DFF0A3E05401600D120A871207F9907A
:10469300036CE054FEF074081217A30249359061CD
:1046A3009A1248E89006F6E0640122C082C083E9CA
:1046B300600514601780291246A17009C291900306
:1046C3006D7467801A90036D746180131246E670EF
:1046D30009D29190036D7471800590036D746AF033
:1046E30002493590619A1248DA9006F6E064012295
:1046F30090249EE493906186F02274EA1217FD746D
:10470300F412178D9082B5AC18AD1974041216A06B
:1047130090249C93F4600302486F907808E0C3945C
:1047230002500302485390821D74041217F3740855
:104733001216A0A818A9198814891574041217E36E
:1047430088088909AE08AF097510FF7511FF750E4A
:10475300FF7C00750C48750D78801274086C70032B
:104763000247E974096C607E740A6C6079850C8277
:10477300850D8378081216458E828F83A909E50A71
:10478300C9F8881274187808121560E5124508F8FC
:10479300C3E098A3E099850C82850D8378081216EF
:1047A3004540188E828F8374187808121560E512BD
:1047B3004508F8E0C398F8A3E0801A741878081243
:1047C3001560E5124508FAE9FB8E828F8312500AC1
:1047D300EAC398F8EB99F9C3E89510E995115006E7
:1047E300881089118C0E0CE50C2404F50C5002057D
:1047F3000DECC39413500302475E74FF65107004FD
:1048030074FF65116024850E087402780812177A04
:1048130074482508F58274783509F58378081216EB
:1048230045851482851583E508F0EE2402FE5001C8
:104833000F851482851583A3858214858315740CD3
:104843001217D9E5826E7003E5836F600302474B4D
:104853007508017509007808121A1074021217F30B
:104863007A277B091210FF74021217A3740C121714
:10487300A37F0E0218CFC082C0839061AE7468F02C
:10488300A3746AF090624574FBF0A304F053F4FD43
:1048930043FE029006F67401F09061A0E0643A9042
:1048A300619A70191248E8740164017009C2919009
:1048B300036D7467801E90036D746180171248DA6C
:1048C300740164017009D29190036D747180059035
:1048D300036D746A0245A9743FF0A3745AF09061A2
:1048E300A0747FF0227433F0A37455F09061A07428
:1048F3003AF0227F040218CFC082C0839006D4E02E
:10490300640170119006DAE064016019E07006A397
:10491300E0640160109006EBE06401700C9006F116
:10492300E064017004790C800279008005E0F912DB
:104933002393D083D08202011FE0C4333354C022B7
:1049430088828983124ECBA882A983222414F582FC
:10495300E438F58322C082C0839006DE7425F0908C
:1049630006DC7401F0A3E4F07A01FB120CFD12499A
:10497300A4241AF582E438F58374ABF0A3740AF027
:104983009006DBE0640170169006DAE0701079019E
:10499300120D5D120D2D120D577900120D6902498A
:1049A300359006CA124D2D2274F61217FD74FA12B1
:1049B300178D9006D3E064017008120A939006D312
:1049C300E4F075E1F11249A42415F582E438F58386
:1049D3007401F09006D5E06401704B908225AC1809
:1049E300AD1974061216A075D90D9006CC12493C68
:1049F3004403F5D97582CD758306124EC7E58264EB
:104A0300D37004E583640670F1A818A91912494309
:104A130074061217D9E582687003E5836970EE7531
:104A2300E195790180027900120D03901D6B124A02
:104A3300917413F0A3740CF0A3124A91124A9112C9
:104A43004BFF7419F0A3740C124C149006CCE0F9CC
:104A53007ACD7B06120CDF9006DEE0F91223937900
:104A630001120D09908255121663120D219082795D
:104A7300121663120CEB7900120D751249A4124938
:104A83004F7416F09003697405F00402512C740DF1
:104A9300F0A3740CF0A32274F71217FD8908A80879
:104AA300E875F00DA4C8AAF02AF9749928FE7403D6
:104AB30039FF9006E3E0F97AE47B06120CDF9006F7
:104AC300F1E070257900120D3FEE240CF582EF34EE
:104AD30001F583E07004790080027901EE2406FA7F
:104AE300EF3401FB120CE580057901120D3F75E1EE
:104AF300F175D9239006E312493C4405F5D9758233
:104B0300E4758306124EC7E58264EA7004E58364A4
:104B13000670F175D90075D90075D90075D900757E
:104B2300D90075D900EE2422124F80124F9F7003D3
:104B3300E9658370F6EE2426124F8B2403F8E435DF
:104B430083F9124F9F7003E9658370F6EE242B12ED
:104B53004F94242C124F94242D124F94242E124F31
:104B630094242F124F942430124F942431124F94D3
:104B73002432124F942433124F94245D124F8B240A
:104B830005F8E43583F9124F9F7003E9658370F6E6
:104B9300EE2437125B32541FF8EE242A125B32C420
:104BA3003354E048F5D975E195901D6B74DDF0A39E
:104BB300740BF0A374E3F0A3740B124BF674E9F0D7
:104BC300A3740B124C149006F0E0F9122393908215
:104BD30055121663120D21908279121663120CEB93
:104BE30090600DE4F07901120D759003697406F07D
:104BF300025368F0A3124BFF124BFF22124C032205
:104C030074D7F0A3740BF0A374D7F0A3740BF0A3C1
:104C130022124C1822F0901D79124C24A3124C241A
:104C230022124C0374D7F0A3740BF02274EC121706
:104C3300FD9006E112578878101216459006F2E0AF
:104C4300FAF875F00DA4C8ACF02C125904FFEE2E3F
:104C5300FEEF33FF8E0CF50D750E00750F008510FA
:104C63000885110985120A85130B9082BD780812F5
:104C730015AB7808121A0C85100885110985120ADC
:104C830085130B7808790C1215987810790C121487
:104C9300F1E4F50EF50F7808790C1215D18A0C752D
:104CA3000D007403780C12177A7808790C12159892
:104CB30090824D780812160CAA08AB09AC0AAD0B0A
:104CC30012232B74041217A38A088B09A808A909B5
:104CD300C3EE98EF995006E82EF8E93FF9E89060A3
:104CE3000EF0E9A3F0EEA3F0EFA3F090600D74C112
:104CF300F07F0C0218CFC082C0839006CA124D19F0
:104D03009006DE024930C082C0839006E1124D193D
:104D13009006F0024930124D2D124D23F0A3F022DC
:104D23002406F582E438F583E422E0F8A3E0C82200
:104D330002011F74F61217FD124ED060047804802E
:104D4300027800E8240EF8ECC3985003024E047C6A
:104D53000C9006FCE4F0EA2476F582E43BF583E06C
:104D63009006FDF0EA2477124E099006FE124E13C8
:104D73009006FFF0EA2479124E09900700124E13B1
:104D8300900701F0EA247B124E09900702124E139A
:104D9300900703F0EA247D124E09900704124E1384
:104DA300900705F0EA2474F8E43BF98A828B83A325
:104DB300A3A3A3A3E0FEA3E0FF88828983E02EF0F0
:104DC300A3E03F1254A6900706124E139007071252
:104DD3004EF460177508FC7509067808121A1079E5
:104DE30003120BCB74021217A37C1012513AECFE80
:104DF300124EC7DEFB75E1957904120D2779018008
:104E030002790002512FF8E43BF988828983E0227A
:104E13001254ABA3E02274F61217FD124ED06004B5
:104E2300780480027800E8240AF8ECC3985003025F
:104E33004EC27E089006FC7401F07CC07D0678FDAE
:104E430079067F05124EDEA882A983DFF7EA248064
:104E5300FCE43BFD8A828B83A3A3A3A3A3E0F50811
:104E6300A3E0F5098C828D83E02508F0A3E03509E2
:104E7300F0124EDE08A9838C828D83E088828983B9
:104E8300124EF460197508FC7509067808121A1099
:104E93007C087903120BCB74021217A37E0C7401E6
:104EA3002EF5D975D9037582FC758306EEFF124E74
:104EB300C7DFFB75E1957904120D2779018002792B
:104EC3000002512F124ECB22E0F5D9A3229061D0DC
:104ED300E0F87480C398FC124EF922124EE2228C41
:104EE300828D83E088828983125CF088828983A320
:104EF30022F0124EF922EA2483F582E43BF583E0A3
:104F03002274F71217FDEAFEEBFF9061D0E07068A0
:104F130075D91875D90375D903EE249C124FA612BF
:104F23004F9F7003E9658370F6EE24A4124F942417
:104F3300A5124F942494124FA6124F9F7003E96554
:104F43008370F6EE2488124F80124F9F7003E96539
:104F53008370F675E1957908EE2494FAE43FFB1229
:104F63000B6B7904EE2488FAE43FFB120B6B790494
:104F7300120D271250B480027900025368124F8B2E
:104F83002404F8E43583F922F582E43FF583E582CE
:104F930022F582E43FF583E0F5D9EE22124ECBE809
:104FA300658222124F8B2408F8E43583F92274F6C4
:104FB3001217FDEAFEEBFF9006FC740612505D1219
:104FC3001A107C017903120BCB74021217A375D943
:104FD3000675D9037582FC7583061250557004E576
:104FE30083640770F575E195900369E064087010B8
:104FF300EE246FF582E43F125008EE2471125AC179
:10500300790102512FF583125CBF2274F61217FD4A
:10501300EAFEEBFF9061D0E070339006FC740A1255
:10502300505D121A107C017903120BCB7402121714
:10503300A375D90675D9037582FC7583061250557D
:105043007004E583640770F51250B18002790002A1
:10505300512F124ECBE582640122F07508FC7509CD
:105063000678082274F61217FDEAFEEBFF9061D072
:10507300E0703678019006FC740BF0900369E064ED
:105083000770197508FC7509067808121A107C0157
:105093007903120BCB74021217A378051252FC1278
:1050A3004EC7DAFB1250B18002790002512F75E12D
:1050B30095EE246F125CB9EE2471F582E43FF5831B
:1050C300E8F0A3E9F079012274F61217FD1251FDFD
:1050D3006004780480027800E8240BF8EAC398405F
:1050E300447C099006FC7408125149125158DDFBA7
:1050F300125B2F601B7508FC7509067808121A10DD
:105103007903EEFAEFFB120BCB74021217A37C0D9B
:105113001251341251F570FB75E1957904120D2784
:105123001250B48002790080031217A37F02021881
:10513300CF12513A8C082274012CF5D975D9037515
:1051430082FC75830622F0EE24E5F8E43FF97AFD4C
:105153007B067D082288828983E08A828B831254AE
:10516300ABA3A882A9838A828B83A3AA82AB83225F
:1051730074F61217FD1251FD600478048002780062
:10518300E82408F8EAC398406478069006FC740C97
:10519300F0900386E09006FDF0900387E09006FE12
:1051A300F0900388E09006FFF0900389E0900700F9
:1051B300F090038AE090070112528C601B7508FC83
:1051C3007509067808121A107C067903EEFA120B99
:1051D300CB74021217A3780A1252861251F570FB90
:1051E30075E1957904120D271250B48002790002FB
:1051F300512F124ECB1508E50822EAFEEBFF906112
:10520300D0E0F87480C398FA1252912274F6121700
:10521300FD1251FD6004780480027800E82404F84C
:10522300EAC398404B78029006FCE8F0EE24F712AC
:105233005B329006FD12528C601B7508FC750906E3
:105243007808121A107C027903EEFA120BCB74025F
:105253001217A378061252861251F570FB75E19569
:105263001252787904120D27EE240D1250B78002E2
:10527300790002512FEE241DF582E43FF583E4F01B
:10528300A3F022125302880822F012529122EE2434
:1052930083F582E43FF583E02274F61217FD124E84
:1052A300D06004780480027800E82404F8ECC39802
:1052B300404278029006FC7407F0EA24F8F582E491
:1052C3003BF583E09006FD124EF460197508FC75FA
:1052D30009067808121A107C027903120BCB7402A8
:1052E3001217A378061252FC124EC7DAFB75E1952A
:1052F30079018002790002512F125302E8FA2274D5
:105303000128F5D975D9037582FC7583062274F7D4
:105313001217FDE9FFA2AFE433FEC2AF7C008001A8
:105323000C1253B95010ECF8EA28F8E43BF9125A7E
:105333001D6F70EC8016EA246EF8E43BF9E0FCEA9A
:105343002CFAE43BFB125356EF1254A0EEA2E09268
:10535300AF8012EA246AF582E43BF58322F0EEA2E1
:10536300E092AF79007F010218CFC082C083A2AF61
:10537300E433FDC2AF1253C114F07C00801DECF87E
:10538300EA28F8E43BF9E8246B125A20C0E0E82449
:105393006AF582E439F583D0E0F00C1253B940DEAC
:1053A300EA246DF582E43BF58374FF1253E6EDA224
:1053B300E092AF0249351253C1F8ECC39822EA24B4
:1053C3006EF582E43BF583E022C082C083A8A8C2C5
:1053D300AF125356E91253E6E8A2E7E433FAE8A220
:1053E300E780CEF0EA2469F582E43BF583E4F0221A
:1053F30074F31217FDEAFEEBFFECFAEDFB8A828BE6
:1054030083A3A3A3A3E0541FF0EE2436F582E43F65
:10541300F583E4F0750A00EE245DFCE43FFD8A8227
:105423008B83E08C828D83F0750B00E50A33333375
:1054330054F8F50C8A828B83E0F508750900E50BB7
:10544300780812175BE508A2E05027EE2436F8E44B
:105453003FF988828983E0F508EE2508F508E43FE3
:10546300F509E5082438F582E43509F583E50C12DE
:1054730054A0050B050CE50BC3940840B7050A8A35
:10548300828B83A3AA82AB838C828D83A3AC82ADF0
:1054930083E50AC3940540867F050218CF1254A6FC
:1054A30004F0221254ABE022F0888289832274F73D
:1054B3001217FD900395E06403700302564E7C00BF
:1054C30075829B758303E06003025638ECF875F030
:1054D3000DA4C8AAF02AF9749928FA740339FB8A2F
:1054E300828B83A3A37401125670E4F0EC8A828B3F
:1054F30083A3A3A3A3F0125C3A7401F0EA2467F533
:1055030082E43BF583740112566AE4F0A312566AEF
:10551300A3A3125680240FF582E43BF5837401F0B4
:10552300EA24351256552418125685241C12565552
:10553300241D125679247F1256552473125655246E
:10554300821256552468F582E43BF5837480125326
:10555300E6EA246E12565524ED12565524EE1256E1
:105563005524EF12565524F012565524F11256794C
:1055730024F312567924F6125655248312565524D1
:10558300D312565524D412565524D512568524D9F0
:1055930012568524DF12565524E112565524DD1286
:1055A300565524E212565524E312565524F9125641
:1055B3007924FB12567924FD12567924FF12567969
:1055C300240C12565F240612565F240712565F24DA
:1055D3000812565F240912565F240A12565F240BE1
:1055E30012565F12535774FF7804F0A3D8FCEA24D1
:1055F3005DF8E43BF97CC07D0612569964C57003DF
:10560300ED640670F4EA24E5F8E43BF97C7D7D0360
:1056130012569964857003ED640370F4900395E06A
:1056230004F0640170298A828B83A3A3A3A3E0906F
:105633000397F0801A0CE582240DF582E58334018B
:10564300F583ECC3940350030254C97A007B000230
:105653005368F582E43BF583E4F0EA22F582EB3408
:1056630001F583E4F0EA22125670A3A322F08A82A2
:105673008B83A3A3A322F582E43BF583E4F0A3F099
:10568300EA22F582E43BF583125690EA22E4F0A382
:10569300F0A3F0A3F022124EE2A882A983EC22C069
:1056A30082C0838A828B83A3A3A3E0600F8A828B49
:1056B30083A3A3A3E4F0900396E014F0900395E092
:1056C30014F0700690039774FFF08A828B83A3A370
:1056D300E4F09006C5E0700D900396E06401700558
:1056E3007900120CF1024935C082C083789B79039B
:1056F30088828983A3E41254ABF01258EEE864C2A3
:105703007003E9640670E9900395E4F0A3F0A374D1
:10571300FFF075E1F102493574F51217FD750800C4
:10572300750900750A007E997F038E828F83A3A378
:10573300A3E0602BE5084509601D85088285098380
:10574300125788121A231257841216631222CF7427
:10575300041217A3E97008EEF8EFF9880889090520
:105763000AEE240DFEEF3401FFE50AC3940340BAA9
:10577300850882850983A3A3A3A3E0F97F03021805
:10578300CF8E828F83125C5DA3A32274EE1217FD6A
:105793008A0A8B0B8C08890C900396E0F8E9C3986E
:1057A30050627AFF7BFF7C00789979038882898332
:1057B300A3A3A3E0603F74FF6A700374FF6B700CD4
:1057C300E82473125A20640170218012E8247312B2
:1057D3005A206401700DE824791258F75017E82411
:1057E30079800BE8242E1258F7500AE8242E125A17
:1057F30020FAA3E0FB0C1258EEECC3940340ADEA8D
:10580300FEEB8018E96010A3E0F875F00DA4C8AAB8
:10581300F02A1259048005EA2AFEEB33FF8E0E8F1D
:105823000F7403780E12176B900396E0F8C3E50E1E
:1058330098E50F940050030258DAE50A25E0F50ACB
:10584300E50B33F50BE50825E0F508ED33F509AC79
:105853000AAD0B8007EC2402FCE43DFDC3E5089C84
:10586300E5099D4060C3EC9EED9F403FECF8EDF9E8
:10587300EEFAEFFB1217028B0FEA450F60068E0E4E
:105883008F0F8006750E00750F00ECF8EDF9EEFA38
:10589300EFFB1217028A108B11EC9510F8ED95119E
:1058A300F9E8250EFCE9350FFD801AE0F8E50CC395
:1058B300985012EEF8EFF9ECFAEDFB1217028B0F8A
:1058C300EA450F7090C3EC950AED950B4009C3E5CB
:1058D300089CE5099D50067AFF7BFF8009ECFAEDF1
:1058E300C313FBEA13FA7F0A0218CFE8240DF8E981
:1058F3003401F922F582E439F583C3E09AA3E09BEE
:1059030022F974C728F582740339F583E0FEA3E016
:105913002274F61217FD74FC12178DEAFEEBFF805A
:1059230044EE2463F8E43FF97A007B00A2AFE4334A
:10593300F508C2AF88828983E0FCA3E0FDEC4D60EB
:105943000F125C78700A88828983A3A3E4F0A3F022
:10595300E508A2E092AF1212AF9006C6E004F09001
:1059630006C7E004F0EE2463F582E43FF583125C9E
:10597300B370AE9006C7E060358E828F83A3A3A376
:10598300A3E0851882851983F0A3E4F09006C7E0AD
:10599300F874021217D9E8F0A3E4F074021217F3B3
:1059A300AA18AB1979011208599006C7E4F0EEFA68
:1059B300EFFB120B17EEFAEFFB120C4F74040251BC
:1059C3002C74F71217FDEAFEEBFF8E828F83A3A3DD
:1059D300A3A3E0FA7B0012082FEEFAEFFB120B2FC2
:1059E300120C31025368C082C0837A00789979031C
:1059F30088828983A3A3A3E06011E8246E125A204E
:105A03006009125A1D70047901800C0A1258EEEADB
:105A1300C3940340DB7900024935E8246AF582E444
:105A230039F583E022C082C083E490037D7808F0D7
:105A3300A3D8FC90037D040245A974F71217FD74E3
:105A4300FC12178D851882851983125690120B71DB
:105A5300E9851882851983F0120B7174011217D925
:105A6300E9F0120B7174021217D9E9F085188285D7
:105A7300198312166374041217A302536874F6127F
:105A830017FDEAFEEBFFEC2403F8E43DF9880889EF
:105A930009EC2407F8E43DF9E8FCE9FD125ACD12BC
:105AA3001702EE240D125AC1125ACD1217028B0996
:105AB300EA45096006EE240D125AE002512FF582E1
:105AC300E43FF583E8F0A3E9F0228C828D83125C36
:105AD300BF850882850983E0FAA3E0FB22F582E40F
:105AE3003FF583E02401F0A3E03400F02274F612C2
:105AF30017FDEAFEEBFFEE242E125B32FCA3E0FD62
:105B0300780079FAECFAEDFB121702EE246F125AC1
:105B1300C1780079FAECFAEDFB1217028B09EA451A
:105B2300096006EE246F125AE002512FEE2483F52A
